{
  "contractName": "Betting",
  "abi": [
    {
      "constant": true,
      "inputs": [
        {
          "name": "",
          "type": "address"
        }
      ],
      "name": "playerInfo",
      "outputs": [
        {
          "name": "amountBet",
          "type": "uint256"
        },
        {
          "name": "teamSelected",
          "type": "uint16"
        }
      ],
      "payable": false,
      "stateMutability": "view",
      "type": "function"
    },
    {
      "constant": true,
      "inputs": [],
      "name": "totalBetsTwo",
      "outputs": [
        {
          "name": "",
          "type": "uint256"
        }
      ],
      "payable": false,
      "stateMutability": "view",
      "type": "function"
    },
    {
      "constant": true,
      "inputs": [],
      "name": "totalBetsOne",
      "outputs": [
        {
          "name": "",
          "type": "uint256"
        }
      ],
      "payable": false,
      "stateMutability": "view",
      "type": "function"
    },
    {
      "constant": true,
      "inputs": [],
      "name": "owner",
      "outputs": [
        {
          "name": "",
          "type": "address"
        }
      ],
      "payable": false,
      "stateMutability": "view",
      "type": "function"
    },
    {
      "constant": true,
      "inputs": [],
      "name": "minimumBet",
      "outputs": [
        {
          "name": "",
          "type": "uint256"
        }
      ],
      "payable": false,
      "stateMutability": "view",
      "type": "function"
    },
    {
      "constant": true,
      "inputs": [
        {
          "name": "",
          "type": "uint256"
        }
      ],
      "name": "players",
      "outputs": [
        {
          "name": "",
          "type": "address"
        }
      ],
      "payable": false,
      "stateMutability": "view",
      "type": "function"
    },
    {
      "inputs": [],
      "payable": true,
      "stateMutability": "payable",
      "type": "constructor"
    },
    {
      "payable": true,
      "stateMutability": "payable",
      "type": "fallback"
    },
    {
      "constant": false,
      "inputs": [],
      "name": "kill",
      "outputs": [],
      "payable": false,
      "stateMutability": "nonpayable",
      "type": "function"
    },
    {
      "constant": true,
      "inputs": [
        {
          "name": "player",
          "type": "address"
        }
      ],
      "name": "checkPlayerExists",
      "outputs": [
        {
          "name": "",
          "type": "bool"
        }
      ],
      "payable": false,
      "stateMutability": "view",
      "type": "function"
    },
    {
      "constant": false,
      "inputs": [
        {
          "name": "_teamSelected",
          "type": "uint8"
        }
      ],
      "name": "bet",
      "outputs": [],
      "payable": true,
      "stateMutability": "payable",
      "type": "function"
    },
    {
      "constant": false,
      "inputs": [
        {
          "name": "teamWinner",
          "type": "uint16"
        }
      ],
      "name": "distributePrizes",
      "outputs": [],
      "payable": false,
      "stateMutability": "nonpayable",
      "type": "function"
    },
    {
      "constant": true,
      "inputs": [],
      "name": "AmountOne",
      "outputs": [
        {
          "name": "",
          "type": "uint256"
        }
      ],
      "payable": false,
      "stateMutability": "view",
      "type": "function"
    },
    {
      "constant": true,
      "inputs": [],
      "name": "AmountTwo",
      "outputs": [
        {
          "name": "",
          "type": "uint256"
        }
      ],
      "payable": false,
      "stateMutability": "view",
      "type": "function"
    }
  ],
  "bytecode": "0x6080604052336000806101000a81548173ffffffffffffffffffffffffffffffffffffffff021916908373ffffffffffffffffffffffffffffffffffffffff160217905550655af3107a4000600181905550610ae1806100606000396000f3fe6080604052600436106100ba576000357c0100000000000000000000000000000000000000000000000000000000900463ffffffff1680634081d916146100bc57806341c0e1b5146101255780634996d51d1461013c5780634b114691146101675780635bf6b19f146101db57806365733592146102065780637904f688146102315780638afadeb5146102705780638da5cb5b1461029b578063c38a8afd146102f2578063d0821b0e1461031d578063f71d96cb1461034e575b005b3480156100c857600080fd5b5061010b600480360360208110156100df57600080fd5b81019080803573ffffffffffffffffffffffffffffffffffffffff1690602001909291905050506103c9565b604051808215151515815260200191505060405180910390f35b34801561013157600080fd5b5061013a61046d565b005b34801561014857600080fd5b506101516104fe565b6040518082815260200191505060405180910390f35b34801561017357600080fd5b506101b66004803603602081101561018a57600080fd5b81019080803573ffffffffffffffffffffffffffffffffffffffff169060200190929190505050610508565b604051808381526020018261ffff1661ffff1681526020019250505060405180910390f35b3480156101e757600080fd5b506101f061053a565b6040518082815260200191505060405180910390f35b34801561021257600080fd5b5061021b610540565b6040518082815260200191505060405180910390f35b34801561023d57600080fd5b5061026e6004803603602081101561025457600080fd5b81019080803561ffff16906020019092919050505061054a565b005b34801561027c57600080fd5b50610285610868565b6040518082815260200191505060405180910390f35b3480156102a757600080fd5b506102b061086e565b604051808273ffffffffffffffffffffffffffffffffffffffff1673ffffffffffffffffffffffffffffffffffffffff16815260200191505060405180910390f35b3480156102fe57600080fd5b50610307610893565b6040518082815260200191505060405180910390f35b61034c6004803603602081101561033357600080fd5b81019080803560ff169060200190929190505050610899565b005b34801561035a57600080fd5b506103876004803603602081101561037157600080fd5b8101908080359060200190929190505050610a01565b604051808273ffffffffffffffffffffffffffffffffffffffff1673ffffffffffffffffffffffffffffffffffffffff16815260200191505060405180910390f35b600080600090505b600480549050811015610462578273ffffffffffffffffffffffffffffffffffffffff1660048281548110151561040457fe5b9060005260206000200160009054906101000a900473ffffffffffffffffffffffffffffffffffffffff1673ffffffffffffffffffffffffffffffffffffffff161415610455576001915050610468565b80806001019150506103d1565b50600090505b919050565b6000809054906101000a900473ffffffffffffffffffffffffffffffffffffffff1673ffffffffffffffffffffffffffffffffffffffff163373ffffffffffffffffffffffffffffffffffffffff1614156104fc576000809054906101000a900473ffffffffffffffffffffffffffffffffffffffff1673ffffffffffffffffffffffffffffffffffffffff16ff5b565b6000600254905090565b60056020528060005260406000206000915090508060000154908060010160009054906101000a900461ffff16905082565b60035481565b6000600354905090565b610552610a3f565b600080905060008090506000809050600080600080600090505b6004805490508110156106725760048181548110151561058857fe5b9060005260206000200160009054906101000a900473ffffffffffffffffffffffffffffffffffffffff1691508861ffff16600560008473ffffffffffffffffffffffffffffffffffffffff1673ffffffffffffffffffffffffffffffffffffffff16815260200190815260200160002060010160009054906101000a900461ffff1661ffff161415610665578188886103e88110151561062557fe5b602002019073ffffffffffffffffffffffffffffffffffffffff16908173ffffffffffffffffffffffffffffffffffffffff168152505086806001019750505b808060010191505061056c565b5060018861ffff16141561068f576003549450600254935061069a565b600254945060035493505b60008090505b868110156107d657600073ffffffffffffffffffffffffffffffffffffffff1688826103e8811015156106cf57fe5b602002015173ffffffffffffffffffffffffffffffffffffffff161415156107085787816103e88110151561070057fe5b602002015193505b600560008573ffffffffffffffffffffffffffffffffffffffff1673ffffffffffffffffffffffffffffffffffffffff16815260200190815260200160002060000154925087816103e88110151561075c57fe5b602002015173ffffffffffffffffffffffffffffffffffffffff166108fc612710876127108a0281151561078c57fe5b0461271001860281151561079c57fe5b049081150290604051600060405180830381858888f193505050501580156107c8573d6000803e3d6000fd5b5080806001019150506106a0565b50600560008273ffffffffffffffffffffffffffffffffffffffff1673ffffffffffffffffffffffffffffffffffffffff1681526020019081526020016000206000808201600090556001820160006101000a81549061ffff0219169055505060006004816108459190610a64565b506000945060009350600060028190555060006003819055505050505050505050565b60025481565b6000809054906101000a900473ffffffffffffffffffffffffffffffffffffffff1681565b60015481565b6108a2336103c9565b1515156108ae57600080fd5b60015434101515156108bf57600080fd5b34600560003373ffffffffffffffffffffffffffffffffffffffff1673ffffffffffffffffffffffffffffffffffffffff168152602001908152602001600020600001819055508060ff16600560003373ffffffffffffffffffffffffffffffffffffffff1673ffffffffffffffffffffffffffffffffffffffff16815260200190815260200160002060010160006101000a81548161ffff021916908361ffff16021790555060043390806001815401808255809150509060018203906000526020600020016000909192909190916101000a81548173ffffffffffffffffffffffffffffffffffffffff021916908373ffffffffffffffffffffffffffffffffffffffff1602179055505060018160ff1614156109ed57346002600082825401925050819055506109fe565b346003600082825401925050819055505b50565b600481815481101515610a1057fe5b906000526020600020016000915054906101000a900473ffffffffffffffffffffffffffffffffffffffff1681565b617d00604051908101604052806103e890602082028038833980820191505090505090565b815481835581811115610a8b57818360005260206000209182019101610a8a9190610a90565b5b505050565b610ab291905b80821115610aae576000816000905550600101610a96565b5090565b9056fea165627a7a72305820418cd08b7489a4ead3c2e0f21f2b5688ed5a105dfd0afd3e29af8f0c75052fc70029",
  "source": "pragma solidity >0.4.99;\r\n\r\ncontract Betting {\r\n   address payable public owner;\r\n   uint256 public minimumBet;\r\n   uint256 public totalBetsOne;\r\n   uint256 public totalBetsTwo;\r\n   address payable[] public players;\r\n   struct Player {\r\n      uint256 amountBet;\r\n      uint16 teamSelected;\r\n    }\r\n// The address of the player and => the user info\r\n   mapping(address => Player) public playerInfo;\r\n   function() external payable {}\r\n   \r\n  constructor() public payable{\r\n      owner = msg.sender;\r\n      minimumBet = 100000000000000;\r\n    }\r\nfunction kill() public {\r\n      if(msg.sender == owner) selfdestruct(owner);\r\n    }\r\n    \r\nfunction checkPlayerExists(address payable player) public view returns(bool){\r\n      for(uint256 i = 0; i < players.length; i++){\r\n         if(players[i] == player) return true;\r\n      }\r\n      return false;\r\n    }\r\nfunction bet(uint8 _teamSelected) public payable {\r\n      //The first require is used to check if the player already exist\r\n      require(!checkPlayerExists(msg.sender));\r\n      //The second one is used to see if the value sended by the player is\r\n      //Higher than the minimum value\r\n      require(msg.value >= minimumBet);\r\n//We set the player informations : amount of the bet and selected team\r\n      playerInfo[msg.sender].amountBet = msg.value;\r\n      playerInfo[msg.sender].teamSelected = _teamSelected;\r\n//then we add the address of the player to the players array\r\n      players.push(msg.sender);\r\n//at the end, we increment the stakes of the team selected with the player bet\r\n      if ( _teamSelected == 1){\r\n          totalBetsOne += msg.value;\r\n      }\r\n      else{\r\n          totalBetsTwo += msg.value;\r\n      }\r\n    }\r\n    // Generates a number between 1 and 10 that will be the winner\r\n    function distributePrizes(uint16 teamWinner) public {\r\n      address payable[1000] memory winners;\r\n      //We have to create a temporary in memory array with fixed size\r\n      //Let's choose 1000\r\n      uint256 count = 0; // This is the count for the array of winners\r\n      uint256 LoserBet = 0; //This will take the value of all losers bet\r\n      uint256 WinnerBet = 0; //This will take the value of all winners bet\r\n      address add;\r\n      uint256 bet;\r\n      address payable playerAddress;\r\n//We loop through the player array to check who selected the winner team\r\n      for(uint256 i = 0; i < players.length; i++){\r\n         playerAddress = players[i];\r\n//If the player selected the winner team\r\n         //We add his address to the winners array\r\n         if(playerInfo[playerAddress].teamSelected == teamWinner){\r\n            winners[count] = playerAddress;\r\n            count++;\r\n         }\r\n      }\r\n//We define which bet sum is the Loser one and which one is the winner\r\n      if ( teamWinner == 1){\r\n         LoserBet = totalBetsTwo;\r\n         WinnerBet = totalBetsOne;\r\n      }\r\n      else{\r\n          LoserBet = totalBetsOne;\r\n          WinnerBet = totalBetsTwo;\r\n      }\r\n//We loop through the array of winners, to give ethers to the winners\r\n      for(uint256 j = 0; j < count; j++){\r\n          // Check that the address in this fixed array is not empty\r\n         if(winners[j] != address(0))\r\n            add = winners[j];\r\n            bet = playerInfo[add].amountBet;\r\n            //Transfer the money to the user\r\n            winners[j].transfer(    (bet*(10000+(LoserBet*10000/WinnerBet)))/10000 );\r\n      }\r\n      \r\n      delete playerInfo[playerAddress]; // Delete all the players\r\n      players.length = 0; // Delete all the players array\r\n      LoserBet = 0; //reinitialize the bets\r\n      WinnerBet = 0;\r\n      totalBetsOne = 0;\r\n      totalBetsTwo = 0;\r\n    }\r\nfunction AmountOne() public view returns(uint256){\r\n       return totalBetsOne;\r\n    }\r\nfunction AmountTwo() public view returns(uint256){\r\n       return totalBetsTwo;\r\n    }\r\n}",
  "sourcePath": "/mnt/c/Users/Quagzlor/Desktop/folders/Ashoka Uni/Ashoka Uni Year 3/Sem 2/Blockchain/Project/League Betting/contracts/Betting.sol",
  "compiler": {
    "name": "solc",
    "version": "0.5.0+commit.1d4f565a.Emscripten.clang"
  },
  "schemaVersion": "3.0.9",
  "updatedAt": "2019-05-05T18:21:46.840Z",
  "devdoc": {
    "methods": {}
  },
  "userdoc": {
    "methods": {}
  }
}