{
  "contractName": "Betting",
  "abi": [
    {
      "constant": true,
      "inputs": [
        {
          "name": "",
          "type": "address"
        }
      ],
      "name": "playerInfo",
      "outputs": [
        {
          "name": "amountBet",
          "type": "uint256"
        },
        {
          "name": "teamSelected",
          "type": "uint16"
        }
      ],
      "payable": false,
      "stateMutability": "view",
      "type": "function"
    },
    {
      "constant": true,
      "inputs": [],
      "name": "totalBetsTwo",
      "outputs": [
        {
          "name": "",
          "type": "uint256"
        }
      ],
      "payable": false,
      "stateMutability": "view",
      "type": "function"
    },
    {
      "constant": true,
      "inputs": [],
      "name": "totalBetsOne",
      "outputs": [
        {
          "name": "",
          "type": "uint256"
        }
      ],
      "payable": false,
      "stateMutability": "view",
      "type": "function"
    },
    {
      "constant": true,
      "inputs": [],
      "name": "minimumBet",
      "outputs": [
        {
          "name": "",
          "type": "uint256"
        }
      ],
      "payable": false,
      "stateMutability": "view",
      "type": "function"
    },
    {
      "constant": true,
      "inputs": [
        {
          "name": "",
          "type": "uint256"
        }
      ],
      "name": "players",
      "outputs": [
        {
          "name": "",
          "type": "address"
        }
      ],
      "payable": false,
      "stateMutability": "view",
      "type": "function"
    },
    {
      "inputs": [],
      "payable": true,
      "stateMutability": "payable",
      "type": "constructor"
    },
    {
      "payable": true,
      "stateMutability": "payable",
      "type": "fallback"
    },
    {
      "constant": false,
      "inputs": [],
      "name": "kill",
      "outputs": [],
      "payable": false,
      "stateMutability": "nonpayable",
      "type": "function"
    },
    {
      "constant": true,
      "inputs": [
        {
          "name": "player",
          "type": "address"
        }
      ],
      "name": "checkPlayerExists",
      "outputs": [
        {
          "name": "",
          "type": "bool"
        }
      ],
      "payable": false,
      "stateMutability": "view",
      "type": "function"
    },
    {
      "constant": false,
      "inputs": [
        {
          "name": "_teamSelected",
          "type": "uint8"
        }
      ],
      "name": "bet",
      "outputs": [],
      "payable": true,
      "stateMutability": "payable",
      "type": "function"
    },
    {
      "constant": false,
      "inputs": [
        {
          "name": "teamWinner",
          "type": "uint16"
        }
      ],
      "name": "distributePrizes",
      "outputs": [],
      "payable": false,
      "stateMutability": "nonpayable",
      "type": "function"
    },
    {
      "constant": true,
      "inputs": [],
      "name": "AmountOne",
      "outputs": [
        {
          "name": "",
          "type": "uint256"
        }
      ],
      "payable": false,
      "stateMutability": "view",
      "type": "function"
    },
    {
      "constant": true,
      "inputs": [],
      "name": "AmountTwo",
      "outputs": [
        {
          "name": "",
          "type": "uint256"
        }
      ],
      "payable": false,
      "stateMutability": "view",
      "type": "function"
    }
  ],
  "bytecode": "0x6080604052336000806101000a81548173ffffffffffffffffffffffffffffffffffffffff021916908373ffffffffffffffffffffffffffffffffffffffff160217905550655af3107a4000600181905550610a5a806100606000396000f3fe6080604052600436106100af576000357c0100000000000000000000000000000000000000000000000000000000900463ffffffff1680634081d916146100b157806341c0e1b51461011a5780634996d51d146101315780634b1146911461015c5780635bf6b19f146101d057806365733592146101fb5780637904f688146102265780638afadeb514610265578063c38a8afd14610290578063d0821b0e146102bb578063f71d96cb146102ec575b005b3480156100bd57600080fd5b50610100600480360360208110156100d457600080fd5b81019080803573ffffffffffffffffffffffffffffffffffffffff169060200190929190505050610367565b604051808215151515815260200191505060405180910390f35b34801561012657600080fd5b5061012f61040b565b005b34801561013d57600080fd5b5061014661049c565b6040518082815260200191505060405180910390f35b34801561016857600080fd5b506101ab6004803603602081101561017f57600080fd5b81019080803573ffffffffffffffffffffffffffffffffffffffff1690602001909291905050506104a6565b604051808381526020018261ffff1661ffff1681526020019250505060405180910390f35b3480156101dc57600080fd5b506101e56104d8565b6040518082815260200191505060405180910390f35b34801561020757600080fd5b506102106104de565b6040518082815260200191505060405180910390f35b34801561023257600080fd5b506102636004803603602081101561024957600080fd5b81019080803561ffff1690602001909291905050506104e8565b005b34801561027157600080fd5b5061027a610806565b6040518082815260200191505060405180910390f35b34801561029c57600080fd5b506102a561080c565b6040518082815260200191505060405180910390f35b6102ea600480360360208110156102d157600080fd5b81019080803560ff169060200190929190505050610812565b005b3480156102f857600080fd5b506103256004803603602081101561030f57600080fd5b810190808035906020019092919050505061097a565b604051808273ffffffffffffffffffffffffffffffffffffffff1673ffffffffffffffffffffffffffffffffffffffff16815260200191505060405180910390f35b600080600090505b600480549050811015610400578273ffffffffffffffffffffffffffffffffffffffff166004828154811015156103a257fe5b9060005260206000200160009054906101000a900473ffffffffffffffffffffffffffffffffffffffff1673ffffffffffffffffffffffffffffffffffffffff1614156103f3576001915050610406565b808060010191505061036f565b50600090505b919050565b6000809054906101000a900473ffffffffffffffffffffffffffffffffffffffff1673ffffffffffffffffffffffffffffffffffffffff163373ffffffffffffffffffffffffffffffffffffffff16141561049a576000809054906101000a900473ffffffffffffffffffffffffffffffffffffffff1673ffffffffffffffffffffffffffffffffffffffff16ff5b565b6000600254905090565b60056020528060005260406000206000915090508060000154908060010160009054906101000a900461ffff16905082565b60035481565b6000600354905090565b6104f06109b8565b600080905060008090506000809050600080600080600090505b6004805490508110156106105760048181548110151561052657fe5b9060005260206000200160009054906101000a900473ffffffffffffffffffffffffffffffffffffffff1691508861ffff16600560008473ffffffffffffffffffffffffffffffffffffffff1673ffffffffffffffffffffffffffffffffffffffff16815260200190815260200160002060010160009054906101000a900461ffff1661ffff161415610603578188886103e8811015156105c357fe5b602002019073ffffffffffffffffffffffffffffffffffffffff16908173ffffffffffffffffffffffffffffffffffffffff168152505086806001019750505b808060010191505061050a565b5060018861ffff16141561062d5760035494506002549350610638565b600254945060035493505b60008090505b8681101561077457600073ffffffffffffffffffffffffffffffffffffffff1688826103e88110151561066d57fe5b602002015173ffffffffffffffffffffffffffffffffffffffff161415156106a65787816103e88110151561069e57fe5b602002015193505b600560008573ffffffffffffffffffffffffffffffffffffffff1673ffffffffffffffffffffffffffffffffffffffff16815260200190815260200160002060000154925087816103e8811015156106fa57fe5b602002015173ffffffffffffffffffffffffffffffffffffffff166108fc612710876127108a0281151561072a57fe5b0461271001860281151561073a57fe5b049081150290604051600060405180830381858888f19350505050158015610766573d6000803e3d6000fd5b50808060010191505061063e565b50600560008273ffffffffffffffffffffffffffffffffffffffff1673ffffffffffffffffffffffffffffffffffffffff1681526020019081526020016000206000808201600090556001820160006101000a81549061ffff0219169055505060006004816107e391906109dd565b506000945060009350600060028190555060006003819055505050505050505050565b60025481565b60015481565b61081b33610367565b15151561082757600080fd5b600154341015151561083857600080fd5b34600560003373ffffffffffffffffffffffffffffffffffffffff1673ffffffffffffffffffffffffffffffffffffffff168152602001908152602001600020600001819055508060ff16600560003373ffffffffffffffffffffffffffffffffffffffff1673ffffffffffffffffffffffffffffffffffffffff16815260200190815260200160002060010160006101000a81548161ffff021916908361ffff16021790555060043390806001815401808255809150509060018203906000526020600020016000909192909190916101000a81548173ffffffffffffffffffffffffffffffffffffffff021916908373ffffffffffffffffffffffffffffffffffffffff1602179055505060018160ff1614156109665734600260008282540192505081905550610977565b346003600082825401925050819055505b50565b60048181548110151561098957fe5b906000526020600020016000915054906101000a900473ffffffffffffffffffffffffffffffffffffffff1681565b617d00604051908101604052806103e890602082028038833980820191505090505090565b815481835581811115610a0457818360005260206000209182019101610a039190610a09565b5b505050565b610a2b91905b80821115610a27576000816000905550600101610a0f565b5090565b9056fea165627a7a72305820ad552ca91e5fef943a6874d122287a2258237e19415505a08d569dec67228e010029",
  "source": "pragma solidity >0.4.99;\r\n\r\ncontract Betting {\r\n   address payable owner;\r\n   uint256 public minimumBet;\r\n   uint256 public totalBetsOne;\r\n   uint256 public totalBetsTwo;\r\n   address payable[] public players;\r\n   struct Player {\r\n      uint256 amountBet;\r\n      uint16 teamSelected;\r\n    }\r\n   mapping(address => Player) public playerInfo;\r\n   function() external payable {}\r\n   \r\nconstructor() public payable{\r\n      owner = msg.sender;\r\n      minimumBet = 100000000000000;\r\n    }\r\nfunction kill() public {\r\n      if(msg.sender == owner) selfdestruct(owner);\r\n    }\r\n    \r\nfunction checkPlayerExists(address payable player) public view returns(bool){\r\n      for(uint256 i = 0; i < players.length; i++){\r\n         if(players[i] == player) return true;\r\n      }\r\n      return false;\r\n    }\r\nfunction bet(uint8 _teamSelected) public payable {\r\n      require(!checkPlayerExists(msg.sender));\r\n      require(msg.value >= minimumBet);\r\n      playerInfo[msg.sender].amountBet = msg.value;\r\n      playerInfo[msg.sender].teamSelected = _teamSelected;\r\n\r\n      players.push(msg.sender);\r\n\r\n      if ( _teamSelected == 1){\r\n          totalBetsOne += msg.value;\r\n      }\r\n      else{\r\n          totalBetsTwo += msg.value;\r\n      }\r\n    }\r\n    function distributePrizes(uint16 teamWinner) public {\r\n      address payable[1000] memory winners;\r\n      \r\n      uint256 count = 0;\r\n      uint256 LoserBet = 0;\r\n      uint256 WinnerBet = 0;\r\n      address add;\r\n      uint256 bet;\r\n      address payable playerAddress;\r\n\r\n      for(uint256 i = 0; i < players.length; i++){\r\n         playerAddress = players[i];\r\n         if(playerInfo[playerAddress].teamSelected == teamWinner){\r\n            winners[count] = playerAddress;\r\n            count++;\r\n         }\r\n      }\r\n      if ( teamWinner == 1){\r\n         LoserBet = totalBetsTwo;\r\n         WinnerBet = totalBetsOne;\r\n      }\r\n      else{\r\n          LoserBet = totalBetsOne;\r\n          WinnerBet = totalBetsTwo;\r\n      }\r\n      for(uint256 j = 0; j < count; j++){\r\n\r\n         if(winners[j] != address(0))\r\n            add = winners[j];\r\n            bet = playerInfo[add].amountBet;\r\n            winners[j].transfer(    (bet*(10000+(LoserBet*10000/WinnerBet)))/10000 );\r\n      }\r\n      \r\n      delete playerInfo[playerAddress];\r\n      players.length = 0;\r\n      LoserBet = 0;\r\n      WinnerBet = 0;\r\n      totalBetsOne = 0;\r\n      totalBetsTwo = 0;\r\n    }\r\nfunction AmountOne() public view returns(uint256){\r\n       return totalBetsOne;\r\n    }\r\nfunction AmountTwo() public view returns(uint256){\r\n       return totalBetsTwo;\r\n    }\r\n}",
  "sourcePath": "/mnt/c/Users/Quagzlor/Desktop/folders/Ashoka Uni/Ashoka Uni Year 3/Sem 2/Blockchain/Project/League Betting/contracts/Betting.sol",
  "compiler": {
    "name": "solc",
    "version": "0.5.0+commit.1d4f565a.Emscripten.clang"
  },
  "schemaVersion": "3.0.9",
  "updatedAt": "2019-05-05T21:48:30.890Z",
  "devdoc": {
    "methods": {}
  },
  "userdoc": {
    "methods": {}
  }
}